:100000000C94DB1E0C940C1F0C940C1F0C940C1FF6
:100010000C940C1F0C940C1F0C940C1F0C940C1FB4
:100020000C940C1F0C940C1F0C940C1F0C940C1FA4
:100030000C940C1F0C9401BB0C940C1F0C940C1F03
:100040000C940C1F0C9441A90C940C1F0C940C1FC5
:100050000C940C1F0C940C1F0C944F5C0C9482415C
:100060000C940C1F0C943F3F0C940C1F0C940C1F11
:100070000C940C1F0C940C1F0C940C1F0C940C1F54
:100080000C940C1F0C940C1F0C940C1F0C940C1F44
:100090000C940C1F0C940C1F0C940C1F0C940C1F34
:1000A0000C940C1F0C940C1F0C940C1F0C940C1F24
:1000B0000C940C1F0C940C1F0C940C1F0C940C1F14
:1000C0000C940C1F0C940C1F0C940C1F0C940C1F04
:1000D0000C940C1F0C940C1F0C940C1F0C940C1FF4
:1000E0000C940C1FFF3F0240F13FF53FFB3F3940AE
:1000F00006400A401040144018401E40224026404E
:1001000039402C40304034409E40A340A840B2408B
:10011000BC403541C640CE40D640E040EA40F440C5
:1001200003410D413541174121412B41615A4F5A3D
:10013000645A525A555A4C5A5E5A725A705A585A00
:100140005B5A94BD0CBC45BCD0BD45BC45BC45BC50
:1001500045BC45BC45BC45BC45BC45BC45BC45BC97
:1001600045BC45BC45BC45BC45BC45BC45BC45BC87
:1001700045BC45BC45BC45BC45BC45BC45BCCABDF1
:1001800045BC45BC45BC45BC45BC45BC45BC45BC67
:10019000A3BD45BC45BC45BC45BC45BC45BC45BCF8
:1001A00045BC45BC45BCE7BD42BC084AD73B3BCE3D
:1001B000016E84BCBFFDC12F3D6C74319ABD568366
:1001C0003DDA3D00C77F11BED9E4BB4C3E916BAA1E
:1001D000AABE000000803F05A84CCDB2D44EB9386D
:1001E00036A9020C50B9918688083CA6AAAA2ABE54
:1001F000000000803F004E414E494E495459494E3F
:1002000046CDCCCC3D0AD7233C17B7D13877CC2B81
:10021000329595E6241FB14F0A000020410000C826
:100220004200401C4620BCBE4CCA1B0E5AAEC59DA7
:1002300074434F4D4D554E49434154494F4E004430
:10024000525952554E004552524F525300494E4654
:100250004F004543484F0047322F473320626164C7
:1002600020706172616D65746572730A00536C650C
:1002700065702E2E2E005761697420666F7220758E
:100280007365722E2E2E004E6F206D6F76652E00D8
:10029000456E642066696C65206C6973740A00425F
:1002A0006567696E2066696C65206C6973740A0005
:1002B0004D31323500286E6F2066696C6529005318
:1002C00044207072696E74696E672062797465206B
:1002D000004E6F74205344207072696E74696E67AB
:1002E0000A0043757272656E742066696C653A2007
:1002F000002569730025696D2025697300256968EB
:100300002025696D202569730025696420256968A9
:100310002025696D20256973002569792025696488
:10032000202569682025696D202569730050726950
:100330006E742074696D653A200052024D024602C7
:100340003F0231026F66660044454255473A004B12
:10035000494C4C45442E20004D3131332053006F21
:100360006B00574151203344205072696E7465729E
:1003700020B5202E00544845524D414C5F50524FFD
:1003800054454354494F4E004155544F5245504FE8
:1003900052545F53445F53544154555300454D45A7
:1003A0005247454E43595F504152534552004341D5
:1003B00053455F4C494748545F4252494748544E61
:1003C00045535300544F47474C455F4C49474854A9
:1003D0005300534F4654574152455F504F57455273
:1003E000004255494C445F50455243454E54004CE1
:1003F0004556454C494E475F44415441005A5F5071
:10040000524F4245004155544F4C4556454C0050C3
:1004100052494E545F4A4F420050524F4752455343
:1004200053004155544F5245504F52545F54454D1F
:100430005000564F4C554D45545249430045455088
:10044000524F4D0053455249414C5F584F4E5F58F3
:100450004F4646004649524D574152455F4E414D29
:10046000453A4D61726C696E20312E312E3920284B
:100470004769746875622920534F555243455F435D
:100480004F44455F55524C3A68747470733A2F2F3D
:100490006769746875622E636F6D2F4D61726C6948
:1004A0006E4669726D776172652F4D61726C696E0F
:1004B0002050524F544F434F4C5F56455253494F73
:1004C0004E3A312E30204D414348494E455F5459F4
:1004D00050453A574151203344205072696E74653B
:1004E000722045585452554445525F434F554E541F
:1004F0003A3120555549443A636564653261326644
:100500002D343161322D343734382D396231322D6A
:100510006335356336326633363766660A002F2F09
:1005200020004D31343520533C696E6465783E209F
:100530006F7574206F662072616E67652028302D9C
:1005400031290A00205400205200416363656C6524
:10055000726174696F6E3A20500020466C6F773A72
:100560002000000136372603FFFFFF353C3D380EE3
:10057000FFFFFF312E303E12FFFFFFFF28FF0C0868
:1005800009FFFF071A1C18FFFF2A08440A2C432002
:10059000643A0020693A0020703A00496E76616C36
:1005A00069642065787472756465720A0043290A6B
:1005B0000061626C656420286D696E2074656D70E1
:1005C0002000436F6C6420657874727564657320D5
:1005D00061726520004E6F2063617365206C6967EE
:1005E00068740A00454550524F4D204F4B0A004158
:1005F00063746976652045787472756465723A2013
:1006000000496E76616C6964206578747275646502
:10061000720A004B494C4C45442E200053544F5015
:100620005045442E20005072696E746572207374B8
:100630006F707065642064756520746F20657272D8
:100640006F72732E20466978207468652065727217
:100650006F7220616E6420757365204D39393920C1
:10066000746F20726573746172742E202854656DE6
:100670007065726174757265206973207265736547
:10068000742E20536574206974206166746572202D
:1006900072657374617274696E67290A004E6F2007
:1006A000436865636B73756D2077697468206C6946
:1006B0006E65206E756D6265722C204C61737420BE
:1006C0004C696E653A20004E6F20436865636B731A
:1006D000756D2077697468206C696E65206E756D24
:1006E0006265722C204C617374204C696E653A20EF
:1006F00000636865636B73756D206D69736D6174FC
:1007000063682C204C617374204C696E653A20003C
:100710004C696E65204E756D626572206973206E3E
:100720006F74204C617374204C696E65204E756D3A
:100730006265722B312C204C617374204C696E659C
:100740003A20004D313130004D3331005344207296
:10075000656164206572726F720A00446F6E652075
:100760007072696E74696E672066696C650A000054
:100770000C0B00FE070192032120FFFF0AFF07FF79
:1007800000000006000A0107070602008080808042
:10079000800080030202060105A0A00507070600ED
:1007A000005050F850F85050050707060000207818
:1007B000A07028F020050707060000C0C8102040E0
:1007C00098180507070600006090A040A8906802EE
:1007D0000303060104C04080030707060100204010
:1007E00080808040200307070601008040202020F1
:1007F000408005050506000120A870A82005050514
:100800000600012020F820200203030602FFC0405A
:1008100080050101060003F8020202060200C0C0C2
:1008200005050506000108102040800507070600A1
:1008300000708898A8C8887003070706010040C0A8
:1008400040404040E00507070600007088087080BF
:1008500080F8050707060000F81020100808F005CA
:10086000070706000010305090F810100507070623
:100870000000F880F008088870050707060000707F
:100880008080F0888870050707060000F8081020AF
:10089000202020050707060000708888708888706F
:1008A00005070706000070888878080870020505AB
:1008B000060200C0C000C0C00206060602FFC0C09B
:1008C00000C0408004070706000010204080402040
:1008D00010050303060002F800F8040707060000ED
:1008E000804020102040800507070600007088081F
:1008F0001020002005070706000070880868A8A8D7
:1009000070050707060000708888F8888888050742
:1009100007060000F08888F08888F00507070600C1
:100920000070888080808870050707060000F088C6
:1009300088888888F0050707060000F88080F08026
:1009400080F8050707060000F88080F080808005A9
:100950000707060000708880B888887005070706BA
:100960000000888888F888888801070706020080C8
:1009700080808080808005070706000038101010F6
:100980001090600507070600008890A0C0A090881E
:10099000050707060000808080808080F805070733
:1009A00006000088D8A88888888805070706000000
:1009B0008888C8A898888805070706000070888876
:1009C00088888870050707060000F08888F0808016
:1009D0008005070706000070888888A890680507CA
:1009E00007060000F08888F0A09088050707060039
:1009F00000788080700808F0050707060000F820DE
:100A00002020202020050707060000888888888885
:100A100088700507070600008888888888502005A8
:100A200007070600008888888888A85005070706F9
:100A30000000888850205088880507070600008835
:100A4000888850202020050707060000F80810209D
:100A50004080F8030707060000E08080808080E087
:100A60000505050600018040201008030707060061
:100A700000E02020202020E0050303060004205091
:100A800088050101060000F8020202060205804006
:100A90000505050600007008788878050707060038
:100AA000008080B0C88888F00505050600007080C9
:100AB000808870050707060000080868988888780D
:100AC0000505050600007088F88070050707060018
:100AD000003048E0404040400506060600FF7088B0
:100AE000887808700507070600008080B0C88888ED
:100AF000880107070602008000808080808003084C
:100B0000080601FF200020202020A040040707063F
:100B10000100808090A0C0A090030707060100C0DC
:100B20004040404040E0050505060000D0A8A8A8C8
:100B3000A8050505060000B0C888888805050506D3
:100B4000000070888888700506060600FFF0888817
:100B5000F080800506060600FF788888780808057A
:100B60000505060000B0C880808005050506000068
:100B700070807008F00407070600004040E0404025
:100B80004030050505060000888888986805050539
:100B90000600008888885020050505060000888822
:100BA000A8A85005050506000088502050880506B5
:100BB000060600FF8888887808700505050600008D
:100BC000F8102040F803070706010020404080404D
:100BD000402001070706020080808080808080031B
:100BE00007070601008040402040408005020206C1
:100BF0000003689000000006000A0000000C000AD4
:100C00000000000C000A0000000C000A0000000CAC
:100C1000000A0000000C000A0000000C000A00009E
:100C2000000C000A0000000C000A0000000C000A82
:100C30000000000C000A0000000C000A0000000C7C
:100C4000000A0000000C000A0000000C000A00006E
:100C5000000C000A0000000C000A0000000C000A52
:100C60000000000C000A0000000C000A0000000C4C
:100C7000000A0000000C000A0000000C000A00003E
:100C8000000C000A0000000C000A0000000C000A22
:100C90000000000C000A0000000C000A0000000C1C
:100CA000000A0000000C000A0B0B160C00FFFFE00E
:100CB0000200020004000D0014802440C42004003F
:100CC000040004000B0B160C00FFF9008A00ABE0D7
:100CD000AC40AA40AA40AA40AA80210052808C6061
:100CE0000B0B160C00FF240024003F8044008400FE
:100CF0000400FFE00A0011002080C0600B0B160CFE
:100D000000FF240024003FC044000400FFE009006D
:100D100009001120212040E00B0B160C00FF2000E1
:100D20003DE0512091201120FF201120292025E0B5
:100D3000452080000B0B160C00FF20807FC0084070
:100D4000FFE0110020805F4080203F8000007FC0D6
:100D50000B0B160C00FF224047E09480E4802FE04C
:100D60004480F48007E03480C48007E00B0B160C4D
:100D700000FF04808FE0490019002FC0090009001E
:100D80002FC0490089000FE00B0B160C00FF10006C
:100D90003F8051000E003180C0603F8024803F8042
:100DA00024803F800B0B160C00FF2280FA4007E0E6
:100DB000FA808A808A80FA802280B280AAA064E0C9
:100DC0000B0B160C00FF222047409280EFE0220020
:100DD00047C0EC4007C03440C7C004400B0B160CA2
:100DE00000FF08000FC008000800FFE008000E0028
:100DF00009800840080008000A0B160C00FFFF805D
:100E00000080008080808080FF80800080008040A3
:100E100080407FC00B0B160C00FF47C04100EFE085
:100E2000410045006960C9204D6049204FE0C8205D
:100E30000B0B160C00FF0800040004000A000A0057
:100E40000A00110011002080404080200B0B160C7E
:100E500000FF22402200F7E0220023E03520E520B9
:100E600025402880294072200B0A140C00004440C1
:100E7000444044407FC00400040084208420842037
:100E8000FFE00B0B160C00FF040000007FC0040005
:100E9000040004007FC0040004000400FFE00B0B0A
:100EA000160C00FFFFE0110001C0FE004880250085
:100EB0000400FFE015002480C4600B0B160C00FF3B
:100EC00011007FC044407FC044407FC00400FFE069
:100ED000040004000400090B160C00FF1000FF8042
:100EE00080808080FF8080808080FF808080808004
:100EF000FF800B0B160C00FF7100010003E0F920CE
:100F00002120412051208920FA20022004C00B0B0F
:100F1000160C00FF7FC01100110011001100FFE04E
:100F2000110011002100210041000B0B160C00FFE5
:100F300021002200F44057E0502057C09440544014
:100F4000244057C094400B0B160C00FF11000A0000
:100F50007FC004000400FFE004000A0011002080AC
:100F6000C0600A0B160C00FF5FC000408440844044
:100F7000BF4084408C409440A4408C4081C00B0B07
:100F8000160C00FF240027C024002400FFE000000E
:100F90001440248047000C0070000B0B160C00FF5F
:100FA000248004800FC0E48024803FE024802480DB
:100FB000288050008FE00B0B160C00FF0800080083
:100FC000FF8088808880FF8088808880FFA08820BC
:100FD00007E00B0B160C00FF27802480F480248090
:100FE00074806C80A480248024A028A030600A0B28
:100FF000160C00FFFFC0804080409E40924092400F
:101000009E4080408040FFC080400B0B160C00FFCC
:101010007FC044005FC050405FC050405FC042008E
:101020004A805240A6200B0B160C00FF040007E07C
:1010300004007FC04040404040407FC0000052401C
:1010400089200B0B160C00FF47802480048004804D
:10105000E86020002FC024402280310026C00B0B06
:10106000160C00FF7FC04A407FC00400FFE0040070
:101070003F80208024802480FFE00B0B160C00FFB3
:1010800022004FE048204FE0C8004FE04AA05AA09D
:101090006FE04AA048600B0B160C00FFF3C0244021
:1010A0002A80F100228065E07220A5402080230084
:1010B0002C000B0B160C00FF0400FFE0802000004A
:1010C000FFE00400240027C0240054008FE00B0B35
:1010D000160C00FF73E01080510023E0FA202AA0D4
:1010E00022A022A02080214062200B0B160C00FFC2
:1010F0002200F78022803680E2A025A024606820AC
:101100000000524089200B0B160C00FF73C04200F8
:1011100042007BE04A404A407A404A4042404440D4
:1011200088400B0B160C00FF0800FFE008001FC0F2
:1011300030405FC090401FC01040104010C00B0BEB
:10114000160C00FF02007FE0420042005FC0420038
:1011500047004A805240622082000B0B160C00FFB1
:10116000F3C096409180A660A10097C091009500C1
:10117000E7E0810081000B0B160C00FF0F808880D8
:101180004F8008808F8040001FC0354055409540FB
:101190003FE00B0B160C00FF27E02080F88020803A
:1011A00020803880E08020802080208061800B0BB0
:1011B000160C00FF1FE0910057C0144017C0944068
:1011C00057C011005540992023000B0B160C00FF4F
:1011D000208027E0F240218022403420E24022405B
:1011E0002240224064400B0B160C00FF41004100DE
:1011F0004FE0E920492049206FE0C92049204920DB
:10120000CFE00B0B160C00FF2100F1004FE0A920EE
:10121000F9202FE03920E92029202FE028200B0B8E
:10122000160C00FF8FE049200920CBA049204FE099
:1012300048204BA04AA06BA050E00B0B160C00FFFF
:101240007FC004004440244024800400FFE00400E8
:101250000400040004000B0B160C00FF8200420087
:101260001FE0C2005FC052405FC047004A8052404A
:10127000BFE00B0B160C00FF04007FE048807FE00E
:1012800048804F8040005FC04840478098600B0B0B
:10129000160C00FF0100EFE0A100A440AFE0A44065
:1012A000AFE0A920E92002800C600B0B160C00FFB8
:1012B00014C0F6A0BC60A780A880BFE0A920EFE022
:1012C00009200FE009200B0B160C00FF7F804080E7
:1012D0004280628054804880488054A062A0406070
:1012E00080200B0B160C00FF04007FE040207FE005
:1012F00040007DE054204CA0546064A08D600B0B36
:10130000160C00FF82005FE0040008409FE04020D0
:101310000A800A804AA092A022600B0B160C00FFE4
:1013200041004FE0E820428044406820C7C04100AF
:1013300041004100CFE00B0B160C00FF50207D2038
:101340009120FF2011207D205520552054205C2025
:1013500010E00B0B160C00FF3F8020803F802080A8
:10136000FFE048007BC0494079404880FB600B0BA0
:10137000160C00FF040004000400248024404440B4
:1013800044208420040004001C000B0B160C00FFFA
:10139000040004000400FFE004000A000A00110039
:1013A00011002080C060090A140A000088804900EA
:1013B0000800FF80008000807F8000800080FF8028
:1013C0000B0B160C00FF21001200FFE000007880DC
:1013D0004A807A804A807A80488059800B0B160CAC
:1013E00000FF27C000000000EFE0210022002440A1
:1013F0002FE0202050008FE00B0B160C00FF208008
:101400002700F90021C077002100F9E027007120B2
:10141000A92020E00B0B160C00FF10401040FDE04F
:10142000104038C03540524094401040104010C029
:101430000B0B160C00FF0040F8400BE00840884002
:101440005240514021405040484089C00A0B160C80
:1014500000FF840084408480F500860084008400BE
:101460009400A440C44083C00B0B160C00FF112055
:101470007D001100FFE02900FD4049407C8008A06C
:10148000FD600A200B0B160C00FF17C024402440FF
:1014900067C0A1002FE021002380254029202100E2
:1014A0000B0B160C00FF0800FFE0100027C0208087
:1014B0006100AFE021002100210023000B0B160C7E
:1014C00000FF24002FE0B400A480A4A0AAC02A80BA
:1014D00028802940324024200B0B160C00FF7FE0AF
:1014E00080003FC020403FC010001FC01040288037
:1014F000470038E00B0B160C00FF7FE04000400077
:10150000400040004000400040004000400080009B
:101510000B0B160C00FFFFE004007FC044407FC0AF
:1015200044407FC0440024001800E7E00B0B160C79
:1015300000FF11E0FD00450029E0FD4011407D4025
:1015400011405540924034400B0B160C00FF210017
:101550005FE04000CFC040004FC040004FC0484057
:101560004FC048400B0B160C00FF04007FC04040EA
:101570007FC040407FC040407FC004405220BFA099
:101580000B0B160C00FF7FC044407FC044407FC05F
:1015900004001B00E0E01100110061000B0B160CB1
:1015A00000FFFFE0040008007FE049204F204920B1
:1015B0004F20492049207FE00B0B160C00FFFDE077
:1015C00056407940388055409220FFE0040027C003
:1015D0002400FFE00B0B160C00FFFB8052007BE0A9
:1015E0001240FA4014403F8020803F8020803F809E
:1015F0000B0B160C00FF1FE0200027C06440A7C0A3
:1016000020002FE0282027C0210023000B0B160C00
:1016100000FFF3E082208220FA20822082208A20AC
:10162000B220C2E0020002000B0B160C00FF248067
:1016300046A095C0E48027E04480F5C006A0348031
:10164000C48007E00B0B160C00FF27C0410087E0A9
:10165000E02022804580F2800FE03080C1400220EF
:101660000B0B160C00FF02000200220023C0220018
:1016700022002200220022002200FFE0090B160CAB
:1016800000FF08000800FF80888088808880FF8035
:10169000888088808880FF800B0B160C00FF21005B
:1016A00053A04100F7E0510053C0564053C05A4088
:1016B00053C042400B0B160C00FF7FC00400040017
:1016C0000400FFE00A000A0012002220422081E00C
:1016D0000B0B160C00FF110021002FE06100A3800E
:1016E0002380254025402920210021000B0B160CCA
:1016F00000FFF7E09420F42097E09480F48097E0D6
:101700009480F4A0966004200B0B160C00FF7BE085
:10171000948004007FC00400FFE00100FFE021008E
:10172000110007000B0B160C00FF210047C09100B1
:101730002FE06080AFE02080248022802080238002
:101740000B0B160C00FF27C02440F7C02EE02AA088
:101750003EE0E1002FE02380254069200B0B160CB2
:1017600000FF140027E02A006200A3C0220022002C
:1017700023E0220022002200000021002400270094
:101780002A002D0030003300010100000401070190
:101790000A0125753A2530327500253032753A2513
:1017A0003032750025756420253032753A25303287
:1017B0007500202020202020005A005900202020E1
:1017C0002000580009200000000000000000000078
:1017D0000000003FFFF000000000000000000000DB
:1017E0000000380070000000000000000000000051
:1017F0000030FC300000000000000000000000008D
:1018000020FC10000000000000000000000000208C
:1018100078100000000000000000000000002030F0
:10182000100000000000000000000000002C00D0AC
:101830003FC0000000000000002082002E31D07F59
:10184000E0000000000000001041002F7BD07FE08E
:10185000000000000000001041002F7BD07FE0005E
:101860000000000000002082002E31D03FC00000A8
:1018700000000000004104002C00D03FC000000028
:10188000000000008208002030107FE0000000000F
:101890000000008208002078107FE00000000000B7
:1018A000000041040020FC107FE000000000000068
:1018B0000020820030FC301F80000000000000008B
:1018C0000000003800700F0000000000000000FF62
:1018D000FFC03FFFF0060000000000000000FFFF17
:1018E000C000000000000000000000000000000038
:1018F0003FFFF00000000000000000000000003882
:1019000000700000000000000000000000003186B0
:1019100030000000000000000000000000238710DD
:101920000000000000000000000000002787900079
:1019300000000000000000000000002F87D0000021
:10194000000000000000000000002F03D03FC00096
:101950000000000000002082002030107FE0000026
:1019600000000000001041002078107FE00000001F
:10197000000000001041002078107FE0000000000F
:101980000000002082002030103FC0000000000056
:1019900000004104002F03D03FC000000000000001
:1019A000008208002F87D07FE000000000000000C8
:1019B0008208002787907FE00000000000000041BF
:1019C00004002387107FE000000000000000208258
:1019D000003186301F800000000000000000000081
:1019E0003800700F0000000000000000FFFFC03F43
:1019F000FFF0060000000000000000FFFFC0000034
:101A000000A4A5A6A7005072696E74696E672E2E99
:101A10002E005072696E7420706175736564004D9C
:101A2000313235004D3234005072696E742061627B
:101A30006F7274656400AFB000F2F6CAF300F9A8E3
:101A400000F4F5CAF300F1F2CAF300D8D900A4A556
:101A500000CFF000ECEDEEEF005761697420666F87
:101A60007220757365722E2E2E0020204E6F7A7AAA
:101A70006C653A2000200066696C616D656E7420AB
:101A80007075726765005761697420666F720074C3
:101A90006F20726573756D65005761697420666F9C
:101AA00072207072696E7400A8A9ACAD00A8A9AAD2
:101AB000AB002C2C2CFFFFFF00000003030362652A
:101AC000640A002C2073797374656D2073746F70D1
:101AD00070656421204865617465725F49443A20ED
:101AE000004265642068656174696E67206661699B
:101AF0006C65640048656174696E67206661696C35
:101B000065640045312048656174696E67206661CF
:101B1000696C65640048656174696E672066616917
:101B20006C65640070012C0190012701B001220155
:101B3000C0011D01F00118011002130130020E0155
:101B40006002090190020401C002FF000003FA00D4
:101B50004003F5008003F000D003EB002004E60012
:101B60007004E100E004DC004005D700C005D200AD
:101B70004006CD00D006C8008007C3003008BE0074
:101B8000F008B900C009B400B00AAF00B00BAA0059
:101B9000D00CA500000EA000500F9B00C0109600B6
:101BA0005012910000148C00C0158700B0178200FD
:101BB000B0197D00D01B7800001E730040206E001D
:101BC00090226900F024640040275F0090295A00A9
:101BD000E02B5500102E500020304B0010324600F4
:101BE000E033410090353C00103737007038320048
:101BF000A0392D00B03A2800A03B2300603C1E0015
:101C0000103D1900903D1400103E0F00703E0A0078
:101C1000C03E0500003F0000403FFBFF803FF6FF55
:101C2000C03FF1FF453120544845524D414C2052B0
:101C3000554E415741590042454420544845524D64
:101C4000414C2052554E4157415900546865726DC0
:101C5000616C2052756E6177617900453120457263
:101C6000723A204D415854454D50004572723A2009
:101C70004D415854454D5020424544004D41585423
:101C8000454D50207472696767657265640045311F
:101C9000204572723A204D494E54454D50004572D0
:101CA000723A204D494E54454D5020424544004D16
:101CB000494E54454D50207472696767657265647A
:101CC000004D383420582059205A204500202F003C
:101CD0002042403A0020403A004368616E67652028
:101CE00066696C616D656E7400CCADD1D200CCAD0F
:101CF000D1D200CCADD1D200D5D6D1D200D5D6D15B
:101D0000D200D5D6D1D200C4C700C4C700C4C70012
:101D1000D3D400D3D400D3D400D1D200D1D200D1B7
:101D2000D200AEAFB000C3C420504C4120C4C700A5
:101D3000C3C420504C4120456E6400C3C420504CA5
:101D40004100A4A500C3C42041425320456E640055
:101D5000C3C42041425320BEC600C3C420414253E5
:101D600000A4A5004D34323800C3C420504C4100BB
:101D7000C8C900C3C420414253004368616E67650F
:101D80002066696C616D656E7400B5B6B7B8B9BA96
:101D9000004D383400BEBFBBBCBDC0C100BBBCBD24
:101DA0000047323800C1B2CE00AEAFB000C1B220A1
:101DB0005800C1B2205900C1B2205A00CCADBA00BF
:101DC000C1B220302E316D6D00C1B220316D6D0079
:101DD000C1B22031306D6D00C1B2CE00CCADBA00C1
:101DE000C1B2205A00C1B2205900C1B2205800200F
:101DF000496E76616C696420657874727564657289
:101E000020000000A0C00000000000000000000052
:101E100057430000574300009643486F6D696E6753
:101E2000206661696C656400486F74656E64207437
:101E30006F6F20636F6C640A004D3630303A205467
:101E40006F6F20636F6C6400486F74656E642074FC
:101E50006F6F20636F6C640A0046696C652064656F
:101E60006C657465643A0044656C6574696F6E20D6
:101E70006661696C65642C2046696C653A20005087
:101E8000726F7465637465642050696E0A00205730
:101E90003A004520436F6F6C696E672E2E2E004509
:101EA0002048656174696E672E2E2E0020573A0017
:101EB00042656420636F6F6C696E672E2E2E004240
:101EC00065642068656174696E672E2E2E00205A45
:101ED0003A0020593A0020436F756E7420583A003A
:101EE00020453A00205A3A0020593A00583A004812
:101EF0006F6D652025732573257320666972737471
:101F0000002066697273740A005A0059005800482C
:101F10006F6D65200020746F6F206C6F6E67206599
:101F20007874727573696F6E2070726576656E7401
:101F300065640A0020636F6C642065787472757341
:101F4000696F6E2070726576656E7465640A0057FD
:101F5000726974696E6720746F2066696C653A20D7
:101F6000006F70656E206661696C65642C2046693F
:101F70006C653A20006F70656E206661696C6564FF
:101F80002C2046696C653A200046696C65207365B3
:101F90006C65637465640A002053697A653A2000B1
:101FA00046696C65206F70656E65643A2000206636
:101FB000696C653A2000646F696E670066726573CC
:101FC00068004E6F772000454E4420535542524FD3
:101FD0005554494E450A002220706F73002220702C
:101FE0006172656E743A2200535542524F555449FE
:101FF0004E452043414C4C207461726765743A220F
:10200000004B494C4C45442E2000747279696E6730
:1020100020746F2063616C6C207375622D67636F31
:1020200064652066696C6573207769746820746FD5
:102030006F206D616E79206C6576656C732E204D16
:102040004158206C6576656C2069733A0045727260
:102050006F723A006F70656E206661696C65642C02
:102060002046696C653A200043616E6E6F74206F84
:1020700070656E2073756264697220006563686FB5
:102080003A00454550524F4D206461746173697A3E
:1020900065206572726F722E0A00290A002062792B
:1020A0007465733B20637263200053657474696EBA
:1020B00067732053746F726564202800290A00201A
:1020C00062797465733B2063726320002073746FC0
:1020D0007265642073657474696E677320726574C9
:1020E000726965766564202800202863616C6375D9
:1020F0006C6174656429210A0020213D200045455A
:1021000050524F4D20435243206D69736D6174638B
:1021100068202D202873746F726564292000205375
:10212000697A653A2000496E6465783A2000204D4E
:1021300061726C696E3D563535290A002845455057
:10214000524F4D3D00454550524F4D2076657273BC
:10215000696F6E206D69736D617463682000CCAD2A
:10216000BA00C1B2205A00C1B2205900C1B22058F1
:1021700000A4A500496E697469616C697A6520459F
:102180004550524F4D00D8D900526573746F726537
:10219000206661696C73616665004C6F6164206DD7
:1021A000656D6F727900496E697469616C697A65F1
:1021B00020454550524F4D0053746F7265206D6538
:1021C0006D6F727900BBCD0046696C616D656E7490
:1021D00000DFB200C9D200AEAFB000C3C42041429C
:1021E0005320BEBF00C3C420504C4120BEBF00508E
:1021F00049442D44005049442D44005049442D4940
:10220000005049442D49005049442D500050494444
:102210002D50000820DDDE000820DDDE000820DA79
:10222000DC000820DADC000820DADC000820DADB39
:10223000000820DADB000820DADB00B52000B3203C
:1022400000B1B2D8C900D5D6D1D200D5D6D1D200EE
:10225000D5D6D1D200C4C700C4C700C4C700D3D4E8
:1022600000D3D400D3D400D8D90053746F72652042
:102270006D656D6F727900C4C700C4C700C4C70024
:10228000D3D400D3D400D3D400D5D6D1D200D5D660
:10229000D1D200D5D6D1D200C9D2005654726176BF
:1022A000206D696E005654726176206D696E00561D
:1022B00054726176206D696E00566D696E00566DC0
:1022C000696E00566D696E00566D61782045005646
:1022D0006D6178204500566D6178204500566D612E
:1022E00078205A00566D6178205A00566D6178202A
:1022F0005A00566D6178205900566D61782059005A
:10230000566D6178205900566D6178205800566DE1
:102310006178205800566D6178205800DFB2004186
:102320006D6178204500416D6178204500416D6107
:1023300078205A00416D6178205A00416D61782003
:102340005900416D6178205900416D617820580035
:10235000416D6178205800412D74726176656C0082
:10236000412D74726176656C00412D7265747261E5
:10237000637400412D72657472616374004163631C
:10238000656C00416363656C00DFB20056652D6AC1
:1023900065726B0056652D6A65726B0056652D6A15
:1023A00065726B00567A2D6A65726B00567A2D6ADB
:1023B00065726B0056792D6A65726B0056792D6ACD
:1023C00065726B0056792D6A65726B0056782D6ABE
:1023D00065726B0056782D6A65726B0056782D6AAF
:1023E00065726B00DFB2004573746570732F6D6D9D
:1023F000004573746570732F6D6D005A737465704A
:10240000732F6D6D005A73746570732F6D6D005965
:1024100073746570732F6D6D005973746570732FCD
:102420006D6D005873746570732F6D6D0058737403
:102430006570732F6D6D00DFB20024F4D43050C38B
:102440008E20C2A24017828B7011127A910D816C7E
:10245000D90AA861E108C7586607615143061E4BB7
:102460005D05C145A7041A411104093D980371395E
:1024700031034036DB0265339102D4305402802EA2
:102480001D02632CEE01752AC501B028A00110279A
:1024900081018F2564012B244B01E0223401AC2102
:1024A0001F018D200D01801FFC00841EED00971D73
:1024B000DF00B81CD200E61BC600201BBC00641A5B
:1024C000B200B219A8000A19A0006A189900D11721
:1024D000910040178B00B516840031167E00B315AD
:1024E00079003A157300C7146F0058146A00EE1390
:1024F00066008813630025135E00C7125B006C1230
:10250000570015125400C111510070114F002111D4
:102510004B00D61049008D104700461044000210B1
:102520004200C00F4000800F3E00420F3C00060FEB
:102530003B00CB0E3800930E37005C0E3500270EA3
:102540003400F30D3200C10D3100900D3000600DEC
:102550002E00320D2D00050D2C00D90C2B00AE0CD9
:102560002900850C29005C0C2700350C27000E0C77
:102570002600E80B2400C40B2400A00B23007D0BD5
:1025800023005A0B2100390B2100180B2000F80AF8
:102590001F00D90A1E00BB0A1E009D0A1D00800AEA
:1025A0001D00630A1C00470A1B002C0A1B00110AAD
:1025B0001A00F7091A00DD091900C4091900AB094E
:1025C0001900920917007B091800630917004C09CC
:1025D000160036091600200916000A091500F5082C
:1025E0001500E0081400CC081400B8081400A40872
:1025F0001400900813007D0812006B08130058089F
:1026000012004608120034081100230811001208B5
:10261000110001081100F0071000E0071000D007BA
:102620001000C0071000B0070F00A10710009107AD
:102630000E0083070F0074070F0065070E00570791
:102640000E0049070E003B070D002E070E00200765
:102650000D0013070D0006070D00F9060C00ED062E
:102660000D00E0060C00D4060C00C8060C00BC06E9
:102670000C00B0060C00A4060B0099060C008D0699
:102680000B0082060B0077060B006C060B00610640
:102690000A0057060B004C060A0042060A003806DC
:1026A0000A002E060A0024060A001A060A0010066E
:1026B000090007060A00FD050900F4050900EB05FD
:1026C0000900E2050900D9050900D0050900C70580
:1026D0000900BE050900B5050800AD050800A505FF
:1026E00009009C050800940508008C050800840575
:1026F00008007C050800740508006C0507006505E6
:1027000008005D050700560508004E05070047054F
:1027100007004005080038050700310507002A05B5
:102720000700230507001C050600160507000F0516
:1027300007000805060002050700FB040600F50473
:102740000700EE040600E8040600E2040700DB04CC
:102750000600D5040600CF040600C9040600C30421
:102760000600BD040600B7040600B1040500AC0471
:102770000600A6040600A00405009B0406009504BC
:102780000500900406008A04050085040500800405
:1027900006007A04050075040500700405006B044A
:1027A000050066040500610405005C04050057048B
:1027B0000500520405004D040500480405004304CB
:1027C00005003E0404003A04050035040500300409
:1027D00004002C04050027040400230405001E0443
:1027E00004001A04040016040500110404000D047A
:1027F0000400090405000404040000040400FC03B0
:102800000400F8030400F4030400F0030400EC03E4
:102810000400E8030400E4030400E0030400DC0314
:102820000400D8030400D4030400D0030400CC0344
:102830000400C8030300C503030024F404D9201BCB
:10284000C40C5C0E9804C4095F0265077101F405AD
:10285000F900FB04B30048048700C1036900580372
:10286000550003034500BE023A00840231005302C2
:102870002A002902250004022000E4011C00C801EE
:102880001900AF01170098011400840113007101B1
:1028900010006101100051010E0043010D003601CE
:1028A0000B002B010B0020010B00150109000C018E
:1028B000090003010800FB000800F3000800EB001A
:1028C0000700E4000600DE000600D8000600D20083
:1028D0000600CC000500C7000500C2000500BD00D1
:1028E0000400B9000400B5000400B1000400AD000C
:1028F0000400A9000400A5000300A20003009F003B
:1029000004009B0003009800030095000200930060
:102910000300900003008D0002008B00030088007C
:1029200002008600020084000300810002007F0094
:1029300002007D0002007B000200790002007700A7
:1029400001007600020074000200720001007100B4
:1029500002006F0002006D0001006C0002006A00BE
:1029600001006900020067000100660001006500C7
:1029700001006400020062000100610001006000CB
:1029800001005F0002005D0001005C0001005B00CF
:1029900001005A00010059000100580001005700D1
:1029A00001005600010055000100540001005300D1
:1029B00000005300010052000100510001005000CE
:1029C00001004F0001004E0000004E0001004D00CC
:1029D00001004C0001004B0000004B0001004A00C8
:1029E00001004900010048000000480001004700C4
:1029F00001004600000046000100450000004500BF
:102A000001004400010043000000430001004200B7
:102A100000004200010041000000410001004000B0
:102A200001003F0000003F0001003E0000003E00AA
:102A300001003D0000003D0001003C0000003C00A2
:102A400000003C0001003B0000003B0001003A0098
:102A500000003A0001003900000039000100380090
:102A60000000380000003800010037000000370087
:102A7000010036000000360000003600010035007D
:102A80000000350000003500010034000000340073
:102A90000000340001003300000033000000330068
:102AA000010032000000320000003200010031005D
:102AB0000000310000003100010030000000300053
:102AC0000000300001002F0000002F0000002F0048
:102AD00000002F0001002E0000002E0000002E003C
:102AE00001002D0000002D0000002D0000002D0031
:102AF00001002C0000002C0000002C0000002C0025
:102B000001002B0000002B0000002B0000002B0018
:102B100001002A0000002A0000002A0000002A000C
:102B20000100290000002900000029000000290000
:102B300000002900010028000000280000002800F3
:102B400000002800000028000100270000002700E6
:102B500000002700000027000000270001002600D9
:102B600000002600000026000000260000002600CD
:102B700001002500000025000000250000002500C0
:102B800000002500000025000100240000002400B2
:102B900000002400000024000000240001002300A5
:102BA0000000230000002300000023000000230099
:102BB000000023000000230001002200000022008A
:102BC000000022000000220000002200000022007D
:102BD0000100210000002100000021000000210070
:102BE0000000210000002100000021000100200061
:102BF0000000200000002000000020000000200055
:102C000000002000000020000000200001001F0044
:102C100000001F0000001F0000001F0000001F0038
:102C200000001F0000001F0001001E0000001E0029
:102C300000001E0000001E000000043700001E29D6
:102C40000000511B00005810000010090000CC04C7
:102C500000007802000041010000526573656E6457
:102C60003A20006F6B0020746F6F206C6F6E6720CE
:102C7000657874727573696F6E2070726576656EB3
:102C80007465640A0020636F6C64206578747275E3
:102C900073696F6E2070726576656E7465640A0084
:102CA000627573793A2070617573656420666F721E
:102CB00020696E7075740A00627573793A207061CC
:102CC0007573656420666F7220757365720A0062A1
:102CD0007573793A2070726F63657373696E670AF2
:102CE000004B494C4C45442E20004B494C4C206332
:102CF0006175736564206279204B494C4C20627584
:102D000074746F6E2F70696E0A004B494C4C4544C9
:102D10002E20004B494C4C20636175736564206222
:102D20007920746F6F206D75636820696E616374BC
:102D30006976652074696D65202D206375727265F2
:102D40006E7420636F6D6D616E643A20004D363095
:102D50003000506C65617365207265736574005056
:102D600052494E5445522048414C544544005072FB
:102D7000696E7465722068616C7465642E206B697D
:102D80006C6C28292063616C6C6564210A00656E97
:102D90007175657565696E672022000000A0C0002E
:102DA000000000000000000000484200004842000F
:102DB000008040000000005761726E696E673A2023
:102DC000486F6D696E672042756D70204469766941
:102DD000736F72203C20310A000202040000A04000
:102DE0000000A0400000004000005C43000057438A
:102DF00000009643FFFFFF00002200250028002B63
:102E0000002E003100340002010000050108010B12
:102E100001000020002300260029002C002F003292
:102E20000000010000030106010901050505050771
:102E30000508080808020202020A0A080804040435
:102E40000401010101010101010303030303030361
:102E500003040707070C0C0C0C0C0C0C0C020202F0
:102E60000206060606060606060B0B0B0B0B0B0BE3
:102E70000B01021020200808102040102040800282
:102E800001020108040201010204081020408080B0
:102E90004020100804020180040201804020100834
:102EA000040201080402010102040810204080010C
:102EB0000204081020408000000A0B02090C0D0ECD
:102EC00008070304010000000000000000000000EB
:102ED00000000000000000000000000000000000F2
:102EE00000000012111000000000000000000000AF
:102EF00000000000000000000000000000021FFFB2
:102F0000FFFFFFFFFF600000000001FF4000000026
:102F10000000FF8000000000007F83CF00000C3025
:102F20003F87FF80000C301F867980000C000F8CDB
:102F300030C7838C30E78C30CFC7CC31F38C30DC9A
:102F4000ECEC33B98C30D86C6C33198C30D06C0C01
:102F500033198C30D86C0C33198C30DC6C0E3B1967
:102F60008C30CF7C079F198C30C77C038F194000B1
:102F70000000000002600000000000061FFFFFFFCD
:102F8000FFFFF82020506C616E6E657242756666B8
:102F9000657242797465733A200020467265652037
:102FA0004D656D6F72793A2000436F6D70696C6585
:102FB000643A2044656320323320323031380A00CD
:102FC000207C20417574686F723A2028574151293E
:102FD0000A00323031382D30382D303100204C612C
:102FE000737420557064617465643A2000312E3129
:102FF0002E390A004D61726C696E0020536F667441
:10300000776172652052657365740A002057617498
:103010006368646F672052657365740A00204272AA
:103020006F776E206F75742052657365740A002087
:1030300045787465726E616C2052657365740A0020
:10304000506F77657255700A0073746172740A006C
:103050006175746F25692E67006572726F722077D3
:10306000726974696E6720746F2066696C650A0006
:10307000456E6473746F707320256320256320256B
:103080006320256300205A3A0020593A0020583A1C
:1030900000656E6473746F7073206869743A200001
:1030A000446F6E6520736176696E672066696C6532
:1030B0002E0A004D32390000060900FE0000000013
:1030C0000001090008FE000005080806000040F0A5
:1030D000C88888987810050808060000C0F8888815
:1030E000888888F80505050600012030F83020059D
:1030F00008080600002070F820202020E0050909BB
:103100000600FF2070A8A8B8888870200509090665
:1031100000FFE080C0B0A828302828050909060073
:10312000FFF8A88888888888A8F8050A0A0600FE9B
:10313000205050505088A8A888700303030600034D
:1031400040A0403A004361703A00205A00205900E4
:10315000580020204D61783A2000205A0020590064
:10316000580020204D696E3A2000B32000B52000A1
:10317000536F667420656E6473746F70733A2000C9
:1031800023646566696E652044454641554C545F2D
:103190004B64200023646566696E652044454641A2
:1031A000554C545F4B69200023646566696E652049
:1031B00044454641554C545F4B70200050494420D3
:1031C0004175746F74756E652066696E69736865A4
:1031D00064212050757420746865206C61737420BC
:1031E0004B702C204B6920616E64204B6420636F10
:1031F0006E7374616E74732066726F6D2062656C9D
:103200006F7720696E746F20436F6E6669677572A1
:103210006174696F6E2E680A0050494420417574CC
:103220006F74756E65206661696C656421207469D0
:103230006D656F75740A00453120544845524D4103
:103240004C2052554E4157415900546865726D618A
:103250006C2052756E617761790045312048656157
:1032600074696E67206661696C65640048656174A5
:10327000696E67206661696C65640050494420414D
:1032800075746F74756E65206661696C6564212064
:1032900054656D706572617475726520746F6F200E
:1032A000686967680A00204B643A2000204B693A3D
:1032B0002000204B703A20000A20436C6173736930
:1032C0006320504944200A002054753A2000204BC6
:1032D000753A2000206D61783A2000206D696E3AC1
:1032E000200020643A200020626961733A20005077
:1032F0004944204175746F74756E65206661696C10
:103300006564212042616420657874727564657219
:10331000206E756D6265720A0050494420417574D3
:103320006F74756E652073746172740A004F6666FF
:1033300073657473206170706C69656400457272A6
:103340003A20546F6F206661722100546F6F2066BF
:1033500061722066726F6D207265666572656E635C
:103360006520706F696E740A00496E73657274200F
:1033700066696C616D656E7420616E642070726543
:10338000737320627574746F6E0A00507265737384
:1033900020627574746F6E20746F2068656174208C
:1033A0006E6F7A7A6C650A00496E73657274206676
:1033B000696C616D656E7420616E642070726573F6
:1033C0007320627574746F6E20286F72204D3130D7
:1033D00038290A0000002110422063308440A550A3
:1033E000C660E770088129914AA16BB18CC1ADD14B
:1033F000CEE1EFF13112100273325222B5529442F3
:10340000F772D662399318837BB35AA3BDD39CC39A
:10341000FFF3DEE36224433420040114E664C7743E
:10342000A44485546AA54BB528850995EEE5CFF5EA
:10343000ACC58DD55336722611163006D776F66692
:103440009556B4465BB77AA719973887DFF7FEE73A
:103450009DD7BCC7C448E5588668A778400861185E
:1034600002282338CCC9EDD98EE9AFF9488969998A
:103470000AA92BB9F55AD44AB77A966A711A500A32
:10348000333A122AFDDBDCCBBFFB9EEB799B588BDA
:103490003BBB1AABA66C877CE44CC55C222C033C7E
:1034A000600C411CAEED8FFDECCDCDDD2AAD0BBD2A
:1034B000688D499D977EB66ED55EF44E133E322ED2
:1034C000511E700E9FFFBEEFDDDFFCCF1BBF3AAF7A
:1034D000599F788F8891A981CAB1EBA10CD12DC1D8
:1034E0004EF16FE18010A100C230E320045025406E
:1034F00046706760B9839893FBA3DAB33DC31CD3CE
:103500007FE35EF3B1029012F322D23235421452BD
:1035100077625672EAB5CBA5A89589856EF54FE519
:103520002CD50DC5E234C324A0148104667447640D
:1035300024540544DBA7FAB79987B8975FE77EF76D
:103540001DC73CD7D326F2369106B016576676765D
:10355000154634564CD96DC90EF92FE9C899E98939
:103560008AB9ABA94458654806782768C018E108AD
:103570008238A3287DCB5CDB3FEB1EFBF98BD89B0D
:10358000BBAB9ABB754A545A376A167AF10AD01AFD
:10359000B32A923A2EFD0FED6CDD4DCDAABD8BAD59
:1035A000E89DC98D267C076C645C454CA23C832C4D
:1035B000E01CC10C1FEF3EFF5DCF7CDF9BAFBABFAD
:1035C000D98FF89F176E367E554E745E932EB23E9D
:1035D000D10EF01E7C3C3E5E2B3D3F2F5B5D3B2CB5
:1035E0002A225C0053746570732F6D6D004A6572FA
:1035F0006B00416363656C65726174696F6E005640
:10360000656C6F6369747900D8D9004C6F61642070
:103610006D6D004C6F6164206D6D004C6F616420B6
:103620006D6D00556E6C6F6164206D6D00556E6C34
:103630006F6164206D6D00556E6C6F6164206D6DFF
:103640000046696C2E204469612E0046696C2E206C
:103650004469612E00B52000B320004520696E202A
:103660006D6D3300D8D900556E5265742020560018
:10367000556E52657420205600556E526574202098
:103680005600556E526574206D6D00556E5265740E
:10369000206D6D00486F70206D6D00486F70206D5B
:1036A0006D00526574726163742020560052657417
:1036B00072616374202056005265747261637420D5
:1036C00020560052657472616374206D6D005265FE
:1036D0007472616374206D6D00B52000B3200041E9
:1036E00075746F526574722E00D8D90043616E6E86
:1036F0006F7420656E746572207375626469723AC6
:103700002000022E2E00AEAFB0004368616E6765E8
:103710002066696C616D656E7400556E6C6F6164D6
:103720002066696C616D656E74004C6F6164206623
:10373000696C616D656E7400C3C42041425300C35F
:10374000C420504C41004368616E67652066696C17
:10375000616D656E74004D3234004D323320257337
:1037600000556E6B6E6F776E20636F6D6D616E646A
:103770003A202200496E736572742066696C616D2F
:10378000656E7420616E642070726573732062755B
:1037900074746F6E20286F72204D313038290A0002
:1037A0004D37303220542564004D363030204230C1
:1037B00020542564004D373032203B2564004D37BE
:1037C00030312054256400556E6C6F616420666949
:1037D0006C616D656E7400556E6C6F616420666916
:1037E0006C616D656E74004D373032004D3730318D
:1037F000004C6F61642066696C616D656E74004D8C
:10380000363030204230004368616E67652066695B
:103810006C616D656E7400A4A5005052494E542031
:1038200050415553454400554E4C4F414420464964
:103830004C414D454E54004C4F41442046494C416B
:103840004D454E54005075726765206D6F7265006E
:10385000436F6E74696E756500524553554D452032
:103860004F5054494F4E533A0020204E6F7A7A6C95
:10387000653A20006368616E6765006F6620746852
:10388000652066696C616D656E74005761697420AE
:10389000666F722073746172740020204E6F7A7AA2
:1038A0006C653A2000200066696C616D656E74205D
:1038B000756E6C6F6164005761697420666F720089
:1038C00020204E6F7A7A6C653A20002000506C659B
:1038D00061736520776169742E2E2E0048656174CE
:1038E000696E67206E6F7A7A6C650020204E6F7A61
:1038F0007A6C653A2000200068656174206E6F7AEA
:103900007A6C652E00507265737320627574746FE3
:103910006E20746F0020204E6F7A7A6C653A20001A
:10392000746F20636F6E74696E75652E2E2E006144
:103930006E6420707265737320627574746F6E00AC
:10394000496E736572742066696C616D656E740092
:1039500020204E6F7A7A6C653A2000200066696CF0
:10396000616D656E74206C6F6164005761697420CD
:10397000666F720020204E6F7A7A6C653A200020C4
:103980000066696C616D656E7420707572676500A4
:103990005761697420666F720048617264636F6476
:1039A00065642044656661756C7420536574746940
:1039B0006E6773204C6F616465640A00080700003D
:1039C0000807000064000000102700000000964374
:1039D000000096430000A0400000C8410000484499
:1039E000000048440000C8433333B94220286D6DBD
:1039F000290020204D36303320002055004C004651
:103A0000696C616D656E74206C6F61642F756E6C8E
:103A10006F6164206C656E677468733A0A002020D9
:103A20004D3230392053004175746F2D52657472D8
:103A30006163743A20533D3020746F206469736170
:103A4000626C652C203120746F20696E7465727011
:103A500072657420452D6F6E6C79206D6F7665737D
:103A600020617320726574726163742F7265636F75
:103A70007665720A0020460020570020204D323023
:103A8000382053005265636F7665723A20533C6C60
:103A9000656E6774683E20463C756E6974732F6D61
:103AA0003E0A00205A0020460020570020204D32B8
:103AB0003037205300526574726163743A20533C6E
:103AC0006C656E6774683E20463C756E6974732F32
:103AD0006D3E205A3C6C6966743E0A00204400200A
:103AE000490020204D33303120500050494420738C
:103AF000657474696E67733A0A00204600204200BC
:103B000020480020204D3134352053004D6174652C
:103B10007269616C20686561747570207061726192
:103B20006D65746572733A0A00205A0020590020AE
:103B3000204D323036205800486F6D65206F666624
:103B40007365743A0A00204500205A00205900206D
:103B5000580020540020530020204D3230352042A0
:103B60000020453C6D61785F655F6A65726B3E0061
:103B700020583C6D61785F785F6A65726B3E2059B2
:103B80003C6D61785F795F6A65726B3E205A3C6D6F
:103B900061785F7A5F6A65726B3E00416476616E40
:103BA0006365643A20423C6D696E5F7365676D655D
:103BB0006E745F74696D655F75733E20533C6D690B
:103BC0006E5F66656564726174653E20543C6D6924
:103BD0006E5F74726176656C5F6665656472617450
:103BE000653E0020540020520020204D3230342009
:103BF0005000416363656C65726174696F6E202863
:103C0000756E6974732F7332293A20503C70726953
:103C10006E745F616363656C3E20523C72657472C2
:103C20006163745F616363656C3E20543C747261D0
:103C300076656C5F616363656C3E0A002045002019
:103C40005A0020590020204D3230312058004D615B
:103C500078696D756D20416363656C657261746927
:103C60006F6E2028756E6974732F7332293A0A00BB
:103C7000204500205A0020590020204D32303320AA
:103C800058004D6178696D756D2066656564726177
:103C90007465732028756E6974732F73293A0A004E
:103CA000204500205A0020590020204D393220584C
:103CB0000053746570732070657220756E69743A74
:103CC0000A0020204D3230302044300A0020204DA0
:103CD0003230302044002044697361626C65640AAC
:103CE0000046696C616D656E742073657474696EED
:103CF00067733A0020204D3134392043203B205552
:103D00006E69747320696E2043656C736975730AFC
:103D1000002020473231202020203B0066696C6162
:103D20006D656E743A20007A5F6D696E3A20007995
:103D30005F6D696E3A2000785F6D696E3A200052BF
:103D400065706F7274696E6720656E6473746F70EE
:103D5000207374617475730A004572726F722077F4
:103D6000726974696E6720746F20454550524F4DDB
:103D7000210A0053442063617264206F6B0A006F54
:103D800070656E526F6F74206661696C65640A00BD
:103D9000766F6C756D652E696E6974206661696CED
:103DA00065640A00534420696E6974206661696C19
:103DB0000A00B6F962FA11241FBECFEFD1E2DEBFCE
:103DC000CDBF00E00CBF13E0A0E0B2E0E4E1FBE116
:103DD00002E00BBF02C007900D92A034B107D9F7E3
:103DE00024E1A0E4B3E001C01D92AD31B207E1F7D8
:103DF0001EE1CAEDDEE100E006C021970109802F37
:103E0000FE010F94E10CC93DD10780E00807A9F736
:103E10000E9483FA0D94790D0C9400002F923F922A
:103E20004F925F926F927F928F929F92AF92BF92CA
:103E3000CF92DF92EF92FF920F931F93CF93DF9376
:103E4000CDB7DEB7CF55D1090FB6F894DEBF0FBEA0
:103E5000CDBF91E09093F41080910D0E8D3409F454
:103E600078C6843511F40C944034873411F00C94E6
:103E70007E3420900B0E30900C0E2AE02216310476
:103E800009F490C58CF444E0241631043CF452E06B
:103E900025163104A4F537FE2BC057C684E028163A
:103EA000310409F440C551C6ACE12A16310409F4C5
:103EB000B3C55CF4EBE02E16310409F478C5FBE1E0
:103EC0002F16310409F478C540C62BE522163104BB
:103ED00009F4B9C53CE52316310409F4B8C54AE52F
:103EE0002416310409F031C6109244030C94803436
:103EF0008091020281110C9485340C94803480915D
:103F00000202882311F40C9480340E944C7282E5E2
:103F10000E94873B882309F436C10E940B3B4B016A
:103F20005C0120E030E0A9010F94B005882309F47A
:103F300056C12091C9103091CA104091CB105091B8
:103F4000CC102CA73DA74EA75FA78091CD109091D4
:103F5000CE10A091CF10B091D01088AB99ABAAAB86
:103F6000BBAB2091B9103091BA104091BB10509169
:103F7000BC102CAF3DAF4EAF5FAF8091BD109091A4
:103F8000BE10A091BF10B091C01088AF99AFAAAF7A
:103F9000BBAF6CA57DA58EA59FA50F94B005811123
:103FA0000DC028AD39AD4AAD5BAD68A979A98AA924
:103FB0009BA90F94B005882309F411C111E092E088
:103FC0002916310409F010E020E030E0A901C50114
:103FD000B4010F94B005881F8827881F181759F05F
:103FE00020E030E040E85FEB28962CAF3DAF4EAFCD
:103FF0005FAF28970AC080E090E0A0E8BFE3289672
:104000008CAF9DAFAEAFBFAF28972CA53DA54EA5F9
:104010005FA56CAD7DAD8EAD9FAD0F94D909249693
:104020006CAF7DAF8EAF9FAF249728A939A94AA95D
:104030005BA968AD79AD8AAD9BAD0F94D9096B01D1
:104040007C0124962CAD3DAD4EAD5FAD2497CA01E9
:10405000B9010F9415062B013C01A7019601C70178
:10406000B6010F9415069B01AC01C301B2010F9478
:10407000DA090F94450C6CAB7DAB8EAB9FAB20E0A7
:1040800030E040E05FE30F9415062B013C01A501F1
:104090009401C501B4010F9415064B015C01A30105
:1040A0009201C301B2010F9415069B01AC01C50139
:1040B000B4010F94D9090F94450C28962CAD3DAD51
:1040C0004EAD5FAD28970F9415064B015C01C701FB
:1040D000B60190582CA93DA94EA95FA90F94B60A24
:1040E000A50194010F9415066B017C012CAD3DAD2B
:1040F0004EAD5FAD6CA57DA58EA59FA50F94DA0989
:1041000020E030E040E05FE30F9415069B01AC0136
:10411000C701B6010F94DA092CA53DA54EA55FA5F0
:104120000F94D9096B017C0128AD39AD4AAD5BAD67
:1041300068A979A98AA99BA90F94DA0920E030E03F
:1041400040E05FE30F9415062B013C012CA93DA92B
:104150004EA95FA924966CAD7DAD8EAD9FAD249721
:104160000F94B60AA50194010F9415069B01AC01AA
:10417000C301B2010F94DA0928A939A94AA95BA998
:104180000F94D90914C089E40E94873B882329F041
:104190000E940B3B6B017C0103C0C12CD12C76012A
:1041A0008AE40E94873B8823E9F00E940B3B6CAFB6
:1041B0007DAF8EAF9FAF20E030E0A901C701B6010F
:1041C0000F94B00581111BC020E030E0A9016CAD57
:1041D0007DAD8EAD9FAD0F94B005811110C0EDE4A3
:1041E000F0E28DC320E030E0A901C701B6010F94D1
:1041F000B0058823A1F31CAE1DAE1EAE1FAEA701F5
:10420000960150582CA73DA74EA75FA78CAD9DAD3A
:10421000AEADBFADB05888AB99ABAAABBBABCA01D2
:10422000B9010F9415064B015C0128A939A94AA9C7
:104230005BA9CA01B9010F9415069B01AC01C50128
:10424000B4010F94DA090F94450C64966CAF7DAFFE
:104250008EAF9FAF64972091C9103091CA104091E2
:10426000CB105091CC1028AF39AF4AAF5BAFA7014C
:10427000960168AD79AD8AAD9BAD0F94DA092896A9
:104280006CAF7DAF8EAF9FAF28978091CD1090918E
:10429000CE10A091CF10B091D01024968CAF9DAFCE
:1042A000AEAFBFAF24972CAD3DAD4EAD5FADBC0101
:1042B000CD010F94DA0968966CAF7DAF8EAF9FAFDA
:1042C00068972091B9103091BA104091BB1050916D
:1042D000BC102C962CAF3DAF4EAF5FAF2C972896FD
:1042E0002CAD3DAD4EAD5FAD28972C966CAD7DAD40
:1042F0008EAD9FAD2C970F94D9096B017C018091F5
:10430000BD109091BE10A091BF10B091C0106096EA
:104310008CAF9DAFAEAFBFAF609768962CAD3DAD93
:104320004EAD5FAD6897BC01CD010F94D9094B012B
:104330005C012091D1103091D2104091D310509156
:10434000D4106C962CAF3DAF4EAF5FAF6C976091C1
:10435000C1107091C2108091C3109091C4100F943D
:10436000D9096CAB7DAB8EAB9FABA70196016CA559
:104370007DA58EA59FA50F9415062B013C01A501D7
:10438000940168A979A98AA99BA90F9415069B0194
:10439000AC01C301B2010F94DA092B013C01A50164
:1043A00094016CA57DA58EA59FA50F9415064B01C4
:1043B0005C01A701960168A979A98AA99BA90F9414
:1043C00015069B01AC01C501B4010F94D909A301E5
:1043D00092010F944D0A6B017C0120E030E0A901AD
:1043E0000F94B00587FF0AC02BED3FE049EC50E485
:1043F000C701B6010F94DA096B017C0132E0231684
:10440000310451F42BED3FE049EC50E4C701B60113
:104410000F94D9096B017C0120E030E0A901C701AC
:10442000B6010F94B005811126C02C962CAD3DAD80
:104430004EAD5FAD2C9768AD79AD8AAD9BAD0F9455
:10444000B005811118C060962CAD3DAD4EAD5FAD8D
:10445000609724966CAD7DAD8EAD9FAD24970F9483
:10446000B005811108C02BEDC22E2FE0D22E29EC11
:10447000E22E20E4F22EA701960164966CAD7DAD8C
:104480008EAD9FAD64970F9415064B015C0120E043
:1044900030E0A9016CA97DA98EA99FA90F94B00550
:1044A0008823D9F0A5019401C501B4010F94150624
:1044B0004B015C012CA93DA94EA95FA9CA01B90114
:1044C0000F9415069B01AC01C501B4010F94DA09E4
:1044D0000F94450C4B015C010DC020E030E0A901B8
:1044E000C501B4010F94000C87FF04C0B7FAB09463
:1044F000B7F8B0942FE632E143E85AE3C501B401BE
:104500000F94B00587FF02C00C948034C501B4013C
:104510000F944F0B0F94230B22967FAF6EAF229711
:10452000672B31F481E090E022969FAF8EAF229707
:104530004090D5105090D6106090D7107090D81041
:104540002296AEADBFAD2297BD0180E090E00F9402
:10455000B4054B015C019B01AC01C701B6010F948E
:10456000B60A68AF79AF8AAF9BAFA50194016CA979
:104570007DA98EA99FA90F94B60A64966CAF7DAFF2
:104580008EAF9FAF6497A30192016091C5107091A7
:10459000C6108091C7109091C8100F94D909A50139
:1045A00094010F94B60AA0966CAF7DAF8EAF9FAF0B
:1045B000A09728AD39AD4AAD5BADCA01B9010F94E2
:1045C000150620E030E040E05FE30F9415069B0104
:1045D000AC0160E070E080E89FE30F94D9092C966D
:1045E0006CAF7DAF8EAF9FAF2C976C962CAD3DAD71
:1045F0004EAD5FAD6C9729873A874B875C874D86B8
:104600005E866F86788A6091080270910902072E93
:10461000000C880B990B0F94B60520914C02309139
:104620004D0240914E0250914F020F9415062AE020
:1046300037ED43E25CE30F94150668A779A78AA7D4
:104640009BA70E9476419B01AC0128533F4F4F4FDF
:104650005F4F60962CAF3DAF4EAF5FAF60974CA4FD
:104660005DA46EA47FA422242394312C39E13CABB9
:1046700022964EAD5FAD22974215530509F41BC13A
:104680000E941A610E947641DC01CB0160962CAD3C
:104690003DAD4EAD5FAD6097821B930BA40BB50B88
:1046A000B7FD11C00E9476419B01AC0128533F4FDA
:1046B0004F4F5F4F60962CAF3DAF4EAF5FAF6097EF
:1046C00080E00E9427B43CA931503CAB332309F46D
:1046D00041C028A939A94AA95BA92C966CAD7DAD2A
:1046E0008EAD9FAD2C970F9415066B017C01920146
:1046F000A30168AD79AD8AAD9BAD0F941506A701F6
:1047000096010F94DA097B018C019201A3012C968A
:104710006CAD7DAD8EAD9FAD2C970F9415064B0102
:104720005C0128A939A94AA95BA968AD79AD8AAD10
:104730009BAD0F9415069B01AC01C501B4010F940C
:10474000D9092B013C01C701D80188AB99ABAAABB1
:10475000BBAB4DC0B10180E090E00F94B40528AD33
:1047600039AD4AAD5BAD0F9415064B015C010F945A
:10477000B30A6B017C01C501B4010F943B0C4B01E2
:104780005C01A70196016CA57DA58EA59FA50F9440
:1047900015062B013C012CAD3DAD4EAD5FADC50105
:1047A000B4010F941506A30192010F94DA092B01AD
:1047B0003C01A50194016CA57DA58EA59FA50F9434
:1047C00015064B015C012CAD3DAD4EAD5FADC70193
:1047D000B6010F9415069B01AC01C501B4010F94FD
:1047E000D90968AB79AB8AAB9BAB49E14CAB920181
:1047F000A30128966CAD7DAD8EAD9FAD28970F942B
:10480000DA0969837A838B839C8328A939A94AA909
:104810005BA968966CAD7DAD8EAD9FAD68970F942A
:10482000DA096D837E838F83988764962CAD3DADC6
:104830004EAD5FAD649769857A858B859C850F94B5
:10484000DA0969877A878B879C87A0962CAD3DAD66
:104850004EAD5FADA0976D857E858F8598890F944D
:10486000DA096D877E878F87988B8091160288235F
:1048700021F0CE0101960E9413B2E090F51018A22B
:1048800019A21AA21BA2CE0180966C018E01085DAE
:104890001F4F9E01235F3F4FAE01475F5F4FBE0139
:1048A0006B5F7F4F4F970E948577882321F09FEFA2
:1048B000291A390ADDCEE090F5101CA21DA21EA215
:1048C0001FA2DE0194966D018E01085D1F4F25EC3D
:1048D00030E141EC50E16DEB70E189EB90E10E9439
:1048E000857780E1E9EBF0E1A9ECB0E101900D9270
:1048F0008A95E1F70C9480340E94AD3BF8018491D5
:104900008F010F5F1F4F8111F7CFE7E5F2E0849130
:104910008F010F5F1F4F882311F40C9480340E9485
:10492000AD3BF801F4CF80E50E94873B882329F056
:104930000E94CB3A6B017C0103C0C12CD12C7601C3
:1049400083E50E94873B882361F00E940B3B20E0B7
:1049500030E04AE754E40F9415060F94230B6B01E3
:104960007C010E9407EA8091240A811105C060E061
:104970008DE692E00E94F5470E947641C60ED71E52
:10498000E81EF91E0E947641DC01CB018C199D09BD
:10499000AE09BF09B7FD02C00C94803480E00E94CC
:1049A00027B4F0CF81E00E94F3ED0C94803480E0D6
:1049B0000E94F3ED0C9480340E94588581110C9470
:1049C000803480E090E0A0EAB0E489839A83AB83EE
:1049D000BC8380E090E0ADE4B3E48D839E83AF833D
:1049E000B88780E090E0A0EAB1E489879A87AB8736
:1049F000BC8780E50E94873B882319F00E94DB3A40
:104A000001C060E068A3BE016F5F7F4FCE0180965A
:104A10000E944CED0C9480348091CB0E87708730CF
:104A200011F00C940D358FE40E94873B882319F018
:104A30000E94FC3A03C08FE40E943E3B81110C941B
:104A400080340C940D35909344030C948034F0E53D
:104A50002F2EF2E03F2EADE9EA2EAEE0FA2EE9EC81
:104A6000F0E1FDA7ECA7B9E9CB2EB4E0DB2E00E026
:104A700010E0D1018D911D010E94873B882309F42C
:104A80004BC00E940B3B2B013C01133049F0F60157
:104A900020813181428153810F94D9092B013C013E
:104AA000ACA5BDA52D913D914D915C91C301B20185
:104AB0000F94D9094B015C012DEB37E346E855EB28
:104AC0000F94000C87FD0AC02DEB37E346E855E351
:104AD000C501B4010F94B0051816F4F4133051F465
:104AE0004092D5105092D6106092D7107092D81084
:104AF00001E012C0A5019401F701608171818281FA
:104B000093810F94DA09D7016D937D938D939C93D4
:104B10001397812F0E947C741F5FB4E0EB0EF11C91
:104B2000ECA5FDA53496FDA7ECA7F4E0CF0ED11CB3
:104B3000143009F09ECF002321F085ED90E10E9412
:104B4000F5840E94B56C0C9480340E949ADB0C941E
:104B5000803480910B0E90910C0E8637910511F4E4
:104B60000C94D72D0CF0BFC08C34910509F4D8C437
:104B70000CF050C08931910509F4DAC21CF584317A
:104B8000910509F4C3C17CF48131910509F439C25E
:104B90002CF4029708F4BDC10C943D34429709F4FB
:104BA000C3C60C943D348631910509F47BC20CF4E4
:104BB00075C28731910509F47BC2489709F48EC20A
:104BC0000C943D348E31910509F470C384F48B311B
:104BD000910509F4C9C20CF4B9C28C31910509F4EC
:104BE0005BC34D9711F40C9480340C943D348032A7
:104BF000910509F45FC30CF4A9C38A32910509F445
:104C00005BC48B34910511F00C943D340E94B8A81C
:104C10000C9480348A36910509F4B8C5B4F584350E
:104C2000910509F481C6E4F48135910509F465C65E
:104C30004CF48D34910511F00C943D340E94F0A891
:104C40000C9480348235910509F46BC68335910547
:104C500011F00C943D3481E0809343030C94803434
:104C60008C35910509F4ACC634F48535910509F409
:104C70008EC60C943D348836910509F455C48936A6
:104C8000910509F41BC50C943D348F36910509F448
:104C900089C484F48C36910509F4D7C40CF494C506
:104CA0008D36910509F44CC58E36910509F467C41B
:104CB0000C943D348237910509F40AC754F48037C7
:104CC000910509F4C6C48137910509F4CAC40C944E
:104CD0003D348337910509F416C18537910509F4F0
:104CE00057C70C943D34823E910511F40C94483121
:104CF0000CF07DC0893C910511F40C94F92E5CF503
:104D00008C38910509F420C584F48837910509F49D
:104D10009DC70CF498C78937910509F49DC78D3755
:104D2000910509F463C50C943D348B39910509F460
:104D3000E0C434F48139910509F493C70C943D34EF
:104D40008E3B910509F41EC5883C910511F40C9425
:104D5000A92E0C943D348F3C910511F40C942E3007
:104D600044F58C3C910511F40C94312F6CF48B3C80
:104D7000910511F00C943D34A0E5EA2EA2E0FA2E44
:104D80000EEF14E00C94222F8D3C910511F40C943D
:104D9000A62F8E3C910511F00C943D34E0E5CE2E0B
:104DA000E2E0DE2EFCECEF2EFEE0FF2E10E00C9495
:104DB0001930833D910511F40C94C93064F4803DA1
:104DC000910511F40C947230813D910511F40C940D
:104DD000BC300C943D348C3D910511F40C94CC30D6
:104DE0008D3D910511F40C94D9300C943D34853FE0
:104DF00021E0920711F40C94A4320CF041C08336E8
:104E000041E0940709F47BC0ECF48D32A1E09A07ED
:104E100011F40C949A313CF48C32914011F40C94BE
:104E200071310C943D348E32F1E09F0711F40C94F3
:104E30003A328F32914011F00C943D340E94CFC42D
:104E40000C9480348A3931E0930709F406C44CF499
:104E50008039914011F00C943D340E9407EA0C9483
:104E600080348C3AA1E09A0711F40C942B30843FE3
:104E7000914011F00C943D340E94C8920C948034FF
:104E80008B35E2E09E0711F40C94DA32C4F4873FCC
:104E900021E0920711F40C94AA3214F40C94A73276
:104EA000883F41E0940711F40C94B6328835924063
:104EB00011F00C943D340E9486C10C9480348B38E0
:104EC000A3E09A0711F40C9480346CF48D3BE2E07B
:104ED0009E0711F40C9462338E3B924011F40C94B3
:104EE00065330C943D34803A23E0920709F421C2E3
:104EF000873E934011F40C942B340C943D34EDE434
:104F0000F0E20C949132E4E5F4E0E7C5EFE9F2E079
:104F100087C0A090090EB0900A0E80E50E94873BE2
:104F2000882359F00E94CB3A6B017C0111E0672B7A
:104F3000682B692B31F410E004C010E0C12CD12C97
:104F4000760183E50E94873B882311F40C94BA35DF
:104F50000E940B3B20E030E04AE754E40F94150632
:104F60000F94230B6B017C0111110BC0672B682B75
:104F7000692B39F4A114B10421F0D5018C91811170
:104F800002C010E001C011E00E9407EA112329F0DD
:104F900061E0C5010E942F4805C060E086E792E00D
:104FA0000E94F54783E08093F41081E08093F31032
:104FB000C114D104E104F104B1F00E947641C60E9F
:104FC000D71EE81EF91E0E947641DC01CB018C1928
:104FD0009D09AE09BF09B7FF0EC08091F310811182
:104FE0000C94BF3508C08091F310882321F080E035
:104FF0000E9427B4F8CF0E94344E1092F3100C9404
:10500000803460E087E892E00E94F5475F988A98D4
:105010008091080181708093060112980C9480346D
:1050200084918F010F5F1F4F882321F00E94AD3BB9
:10503000F801F6CF1092570D8AE09BE00E94A4CCB5
:105040008BE1EAE0FBE0DE01159601900D928A9576
:10505000E1F78091080B9091090B9C838B838EE67E
:1050600092E09A83898340E050E0BE016F5F7F4FFA
:1050700080E090E00E944A88CE0101960E94A6B38B
:10508000E0E9F2E084918F010F5F1F4F882311F454
:105090000C9480340E94AD3BF801F4CF0E94ACF731
:1050A0000C9480341092DA0A1092DB0A0C9480344B
:1050B000E091090EF0910A0E8081882329F0803258
:1050C00009F410823196F8CF40E061E08091090E3A
:1050D00090910A0E0E940D8B0C94803480E090E039
:1050E000A8E4B2E489839A83AB83BC8318A219A293
:1050F0001AA21BA21CA21DA21EA21FA28091230AFB
:10510000882359F020E0AE014F5F5F4FBE01605E23
:105110007F4FCE0184960E9494DA8091DB0A882327
:1051200019F081E08093DA0A0E94B8A80C948034C8
:105130001092DA0A0E94DBA880EB92E09093AF1005
:105140008093AE100E94623A0C9480348091DB0A06
:10515000882311F40C94803483E50E94873B8111ED
:105160000C94C4350C94803483E40E943E3B882325
:1051700009F450C0E2EEF2E084918F010F5F1F4FFF
:10518000882321F00E94AD3BF801F6CF8091A50C59
:10519000811103C0E5EBF2E012C0BE016F5F7F4FEB
:1051A00082EA9CE00E946CCB8E010F5F1F4FF801DA
:1051B00081918F01882349F10E94AD3BF8CF849102
:1051C0008F010F5F1F4F882301F10E94AD3BF80153
:1051D000F6CF7AE3C72E73E0D72EE12CF12C20E036
:1051E0008091050A90E00E2C02C0959587950A944F
:1051F000E2F780FD07C23FEFE31AF30A42E0C40E74
:10520000D11C55E0E516F10459F78AE00E94AD3B48
:105210000C9480348091DB0A882339F08091DA0A7B
:10522000882319F0EFEBF2E003C0E1EDF2E028C0D3
:1052300084918F010F5F1F4F882321F00E94AD3BA7
:10524000F801F6CF6091530D7091540D8091550D7A
:105250009091560D4AE00E94493E8FE20E94AD3B7C
:1052600060914F0D7091500D8091510D9091520DA4
:105270004AE00E94493E8AE00E94AD3B0C94803493
:1052800084918F010F5F1F4F882311F40C94803499
:105290000E94AD3BF801F4CF40E060E08091090E40
:1052A00090910A0E0E940D8B0C9480340E94DF7640
:1052B0000C9480348091DA0A81110E9407EA80916F
:1052C000DB0A882311F40C94803480E50E94873B2C
:1052D000882319F00E94FC3A03C080E50E943E3BFF
:1052E000182F482F61E08091090E90910A0E0E94BC
:1052F0000D8B83E50E94873B882381F00E94DB3A77
:10530000AB01BC014093530D5093540D6093550D68
:105310007093560D82EA9CE00E945DCA8091DB0A80
:10532000882319F081E08093DA0A11110C948034FB
:10533000FBCE8091090E90910A0E21E02093D90AAC
:1053400040E060E00E940D8B0C9480340E94D66394
:105350007B018C0120E831E541E050E00F949E098B
:10536000C9016DE671E00F949E0C4B015C01C80110
:10537000B70120E13EE040E050E00F949E09CA01F1
:10538000B90128E130E040E050E00F949E09762E0C
:10539000672EC62ED72EECE32E2E312C412C512C0D
:1053A000C801B701A20191010F949E09F62EE72EC4
:1053B000CA01B901A20191010F949E09CB018E018E
:1053C0000F5F1F4F8114910499F0EF92FF927F932A
:1053D0006F936F927F92BF92AF929F928F9289E16B
:1053E00093E09F938F931F930F930F944A0513C0DD
:1053F000A114B104B1F0EF92FF927F936F936F927B
:105400007F92BF92AF9289E093E09F938F931F9317
:105410000F930F944A050FB6F894DEBF0FBECDBFB1
:1054200030C0CD2879F0EF92FF927F936F936F9207
:105430007F928DEF92E09F938F931F930F930F9422
:105440004A05E9CF892B69F0EF92FF927F936F9322
:1054500085EF92E09F938F931F930F930F944A05CC
:10546000DACFEF92FF9281EF92E09F938F931F9399
:105470000F930F944A050F900F900F900F900F907D
:105480000F9060E0C8010E942F48ECE7F0E28491A1
:105490007F01BFEFEB1AFB0A882321F00E94AD3B8E
:1054A000F701F5CFB8018DE293E00E943BB18AE0AD
:1054B0000E94AD3B0C94803483E50E94873B882397
:1054C00011F40C9480340E94EB3AE82E80E50E949F
:1054D000873B882339F00E94EB3A182F87FF03C0DF
:1054E0000C9480341DE089E40E94873B882341F0BE
:1054F0000E94FC3A81110C942C36E2E6F5E00BC0D8
:1055000089E40E943E3BF6CF319625E0EF38F20762
:1055100011F40C942C3684911813F6CF0C940036A9
:105520000E94DBA80C94803488E690E00E94BC7452
:1055300081110C9480348091050A83FF02C00C9481
:10554000803483E50E94873B8823A9F00E940B3BAF
:105550000F941E0BCB010E949B470E940B3B20E047
:1055600030E04AEA52E40F94B005181624F00E9485
:10557000F0A80E94344E0E9456B10C9480348EE400
:105580000E94873B882311F40C9480340E94DB3AFC
:1055900060931F0A7093200A8093210A9093220A35
:1055A0000C94803483E50E943E3B882359F083E5C8
:1055B0000E94873B882319F00E94EB3A01C080E0EB
:1055C0008093050AECE7F0E284918F010F5F1F4F93
:1055D000811103C0E8E4F3E004C00E94AD3BF80190
:1055E000F3CF84918F010F5F1F4F882321F00E941A
:1055F000AD3BF801F6CF8091050A8111EACDE4E4D4
:10560000F3E018C0BB24B394B20E222319F08CE24D
:105610000E94AD3BF60185919491FC0184918F012C
:105620000F5F1F4F882321F00E94AD3BF801F6CF9A
:105630002B2DE1CD84918F010F5F1F4F882309F43B
:10564000E4CD0E94AD3BF801F5CF10923B020C94E3
:1056500080348FE493E00E94C7B30E9477C40C9417
:10566000803483E50E94873B811103C0ECE7F0E2C0
:105670000DC00E94EB3A8D3320F480932F020C94DE
:1056800080348CE380932F020C94803484918F01BA
:105690000F5F1F4F882321F00E94AD3BF801F6CF2A
:1056A00040912F0250E060E070E088E593E00E94B6
:1056B000E8B08AE00E94AD3B0C94803489E690E02B
:1056C0000E94BC74811111C0EFE5F3E084918F0159
:1056D0000F5F1F4F882321F00E94AD3BF801F6CFEA
:1056E0000E94CC5B8AE00E94AD3B1092F4100C94B7
:1056F000413683E50E94873B882311F40C94803463
:105700000E94EB3A182F8D3308F01CE310939C0E87
:105710000E9476416B017C01212F30E0A8EEB3E0BE
:105720000F94CA09C60ED71EE81EF91EC092980E25
:10573000D092990EE0929A0EF0929B0E0C948034C7
:105740000E94FE740C9480348091050A83FF02C08D
:105750000C94803483E50E94873B882311F40C94D9
:1057600080340E940B3B0F941E0B6639710514F0B8
:1057700066E970E07093AB106093AA100E94865C9B
:105780000C9480340E94A16D0C94803480E50E94BA
:10579000873B811106C083E50E94873B882361F027
:1057A00006C00E94EB3A81110C948034F4CF0E9421
:1057B000DB3A6F3F710510F06FEF70E070932F05CB
:1057C00060932E050C94803480E50E94873B811104
:1057D00006C010922F0510922E050C9480340E9462
:1057E000DB3A672B11F00C948034F3CF8CE40E94E9
:1057F0003E3B882381F00E940B3B6B017C0120E043
:1058000030E0A9010F94000C87FF0AC0F7FAF0946A
:10581000F7F8F09405C0C12CD12CE12C60E4F62EF1
:10582000F7FAF094F7F8F094CCA2DDA2EEA2FFA272
:1058300080E090E0A0EAB0E489839A83AB83BC83E4
:1058400080E090E0ADE4B3E48D839E83AF83B887BE
:1058500080E090E0A0EAB1E489879A87AB87BC87B3
:1058600088E50E94873B882379F088E50E94873B82
:10587000882319F00E940B3B03C060E070E0CB016D
:1058800069837A838B839C8389E50E94873B882385
:1058900079F089E50E94873B882319F00E940B3B31
:1058A00003C060E070E0CB016D837E838F839887B7
:1058B0008AE50E94873B882379F08AE50E94873B2E
:1058C000882319F00E940B3B03C060E070E0CB011D
:1058D00069877A878B879C8718A219A21AA21BA2B4
:1058E00020E0AE01405E5F4FBE016F5F7F4FCE0193
:1058F00084960E9479710C9480340E94D25C0E943C
:105900001DEB10922F0510922E0568EE73E080E0DB
:1059100090E00E94034760E082E693E00E94F54732
:10592000EFC710924303ECC783E50E94873B8823AF
:1059300099F00E940B3B20E030E04AE754E40F94DA
:1059400015060F94230B60933002709331028093FD
:10595000320290933302D4C788E50E943E3B811106
:105960000C94D43589E50E943E3B81110C94D435CA
:105970008AE50E943E3B81110C94D43585E40E9457
:105980003E3B81110C94D4350E941DEBB9C783E5D1
:105990000E943E3B882309F4B3C70E940B3B20E0E2
:1059A00030E04AE754E40F9415060F94230B6093FC
:1059B000940E7093950E8093960E9093970EA0C7B9
:1059C00040E5C42E42E0D42E56E0E52E5AE0F52EF6
:1059D00010E0D6018D916D010E943E3B882309F4B1
:1059E0006DC0133009F063C00E940B3B4B015C019A
:1059F00020E030E040EA51E40F94B00587FF4EC04C
:105A0000A50194016091120A7091130A8091140A01
:105A10009091150A0F94B60A2B013C019B01AC0131
:105A20006091DA047091DB048091DC049091DD04D4
:105A30000F9415066093DA047093DB048093DC0402
:105A40009093DD04A301920160910A0570910B050A
:105A500080910C0590910D050F94150660930A0531
:105A600070930B0580930C0590930D056091EA04EB
:105A70007091EB048091EC049091ED040F94B405C7
:105A8000A30192010F9415060F94230B6093EA046F
:105A90007093EB048093EC049093ED048092120ACF
:105AA0009092130AA092140AB092150A07C00E949D
:105AB0000B3BF70160837183828393831F5FF4E064
:105AC000EF0EF11C143009F084CF0E94E1B118C729
:105AD0000E9407EA0E94B56C13C784918F010F5F83
